{
  "_format": "hh-sol-artifact-1",
  "contractName": "EcoStabilizerV2",
  "sourceName": "contracts/EcoStabilizerV2.sol",
  "abi": [
    {
      "inputs": [
        {
          "internalType": "address",
          "name": "_ecoAsset",
          "type": "address"
        },
        {
          "internalType": "address",
          "name": "_scc",
          "type": "address"
        }
      ],
      "stateMutability": "nonpayable",
      "type": "constructor"
    },
    {
      "inputs": [],
      "name": "EnforcedPause",
      "type": "error"
    },
    {
      "inputs": [],
      "name": "ExpectedPause",
      "type": "error"
    },
    {
      "inputs": [
        {
          "internalType": "address",
          "name": "owner",
          "type": "address"
        }
      ],
      "name": "OwnableInvalidOwner",
      "type": "error"
    },
    {
      "inputs": [
        {
          "internalType": "address",
          "name": "account",
          "type": "address"
        }
      ],
      "name": "OwnableUnauthorizedAccount",
      "type": "error"
    },
    {
      "inputs": [],
      "name": "ReentrancyGuardReentrantCall",
      "type": "error"
    },
    {
      "anonymous": false,
      "inputs": [
        {
          "indexed": true,
          "internalType": "address",
          "name": "user",
          "type": "address"
        },
        {
          "indexed": true,
          "internalType": "uint256",
          "name": "tokenId",
          "type": "uint256"
        }
      ],
      "name": "Deposited",
      "type": "event"
    },
    {
      "anonymous": false,
      "inputs": [
        {
          "indexed": true,
          "internalType": "address",
          "name": "to",
          "type": "address"
        },
        {
          "indexed": true,
          "internalType": "uint256",
          "name": "tokenId",
          "type": "uint256"
        }
      ],
      "name": "EmergencyNFTWithdrawn",
      "type": "event"
    },
    {
      "anonymous": false,
      "inputs": [
        {
          "indexed": false,
          "internalType": "uint256",
          "name": "oldValue",
          "type": "uint256"
        },
        {
          "indexed": false,
          "internalType": "uint256",
          "name": "newValue",
          "type": "uint256"
        }
      ],
      "name": "MaxScanRangeUpdated",
      "type": "event"
    },
    {
      "anonymous": false,
      "inputs": [
        {
          "indexed": true,
          "internalType": "address",
          "name": "previousOwner",
          "type": "address"
        },
        {
          "indexed": true,
          "internalType": "address",
          "name": "newOwner",
          "type": "address"
        }
      ],
      "name": "OwnershipTransferred",
      "type": "event"
    },
    {
      "anonymous": false,
      "inputs": [
        {
          "indexed": false,
          "internalType": "address",
          "name": "account",
          "type": "address"
        }
      ],
      "name": "Paused",
      "type": "event"
    },
    {
      "anonymous": false,
      "inputs": [
        {
          "indexed": false,
          "internalType": "address",
          "name": "account",
          "type": "address"
        }
      ],
      "name": "Unpaused",
      "type": "event"
    },
    {
      "anonymous": false,
      "inputs": [
        {
          "indexed": true,
          "internalType": "address",
          "name": "user",
          "type": "address"
        },
        {
          "indexed": true,
          "internalType": "uint256",
          "name": "tokenId",
          "type": "uint256"
        }
      ],
      "name": "Withdrawn",
      "type": "event"
    },
    {
      "inputs": [],
      "name": "MAX_PAGE_SIZE",
      "outputs": [
        {
          "internalType": "uint256",
          "name": "",
          "type": "uint256"
        }
      ],
      "stateMutability": "view",
      "type": "function"
    },
    {
      "inputs": [],
      "name": "MAX_SCAN_CEILING",
      "outputs": [
        {
          "internalType": "uint256",
          "name": "",
          "type": "uint256"
        }
      ],
      "stateMutability": "view",
      "type": "function"
    },
    {
      "inputs": [],
      "name": "SCC_PER_ASSET",
      "outputs": [
        {
          "internalType": "uint256",
          "name": "",
          "type": "uint256"
        }
      ],
      "stateMutability": "view",
      "type": "function"
    },
    {
      "inputs": [
        {
          "internalType": "uint256",
          "name": "tokenId",
          "type": "uint256"
        },
        {
          "internalType": "address",
          "name": "to",
          "type": "address"
        }
      ],
      "name": "adminSweepNFT",
      "outputs": [],
      "stateMutability": "nonpayable",
      "type": "function"
    },
    {
      "inputs": [
        {
          "internalType": "uint256",
          "name": "tokenId",
          "type": "uint256"
        }
      ],
      "name": "deposit",
      "outputs": [],
      "stateMutability": "nonpayable",
      "type": "function"
    },
    {
      "inputs": [
        {
          "internalType": "uint256[]",
          "name": "tokenIds",
          "type": "uint256[]"
        }
      ],
      "name": "depositBatch",
      "outputs": [],
      "stateMutability": "nonpayable",
      "type": "function"
    },
    {
      "inputs": [],
      "name": "ecoAsset",
      "outputs": [
        {
          "internalType": "contract IAstaVerde",
          "name": "",
          "type": "address"
        }
      ],
      "stateMutability": "view",
      "type": "function"
    },
    {
      "inputs": [],
      "name": "getTotalActiveLoans",
      "outputs": [
        {
          "internalType": "uint256",
          "name": "",
          "type": "uint256"
        }
      ],
      "stateMutability": "view",
      "type": "function"
    },
    {
      "inputs": [
        {
          "internalType": "uint256",
          "name": "startId",
          "type": "uint256"
        },
        {
          "internalType": "uint256",
          "name": "limit",
          "type": "uint256"
        }
      ],
      "name": "getTotalActiveLoansPaginated",
      "outputs": [
        {
          "internalType": "uint256",
          "name": "count",
          "type": "uint256"
        },
        {
          "internalType": "uint256",
          "name": "nextStartId",
          "type": "uint256"
        }
      ],
      "stateMutability": "view",
      "type": "function"
    },
    {
      "inputs": [
        {
          "internalType": "address",
          "name": "user",
          "type": "address"
        }
      ],
      "name": "getUserLoanCount",
      "outputs": [
        {
          "internalType": "uint256",
          "name": "",
          "type": "uint256"
        }
      ],
      "stateMutability": "view",
      "type": "function"
    },
    {
      "inputs": [
        {
          "internalType": "address",
          "name": "user",
          "type": "address"
        },
        {
          "internalType": "uint256",
          "name": "startId",
          "type": "uint256"
        },
        {
          "internalType": "uint256",
          "name": "limit",
          "type": "uint256"
        }
      ],
      "name": "getUserLoanCountPaginated",
      "outputs": [
        {
          "internalType": "uint256",
          "name": "count",
          "type": "uint256"
        },
        {
          "internalType": "uint256",
          "name": "nextStartId",
          "type": "uint256"
        }
      ],
      "stateMutability": "view",
      "type": "function"
    },
    {
      "inputs": [
        {
          "internalType": "address",
          "name": "user",
          "type": "address"
        }
      ],
      "name": "getUserLoans",
      "outputs": [
        {
          "internalType": "uint256[]",
          "name": "",
          "type": "uint256[]"
        }
      ],
      "stateMutability": "view",
      "type": "function"
    },
    {
      "inputs": [
        {
          "internalType": "address",
          "name": "user",
          "type": "address"
        },
        {
          "internalType": "uint256",
          "name": "startId",
          "type": "uint256"
        },
        {
          "internalType": "uint256",
          "name": "limit",
          "type": "uint256"
        }
      ],
      "name": "getUserLoansPaginated",
      "outputs": [
        {
          "internalType": "uint256[]",
          "name": "tokenIds",
          "type": "uint256[]"
        },
        {
          "internalType": "uint256",
          "name": "nextStartId",
          "type": "uint256"
        }
      ],
      "stateMutability": "view",
      "type": "function"
    },
    {
      "inputs": [
        {
          "internalType": "uint256",
          "name": "",
          "type": "uint256"
        }
      ],
      "name": "loans",
      "outputs": [
        {
          "internalType": "address",
          "name": "borrower",
          "type": "address"
        },
        {
          "internalType": "bool",
          "name": "active",
          "type": "bool"
        }
      ],
      "stateMutability": "view",
      "type": "function"
    },
    {
      "inputs": [],
      "name": "maxScanRange",
      "outputs": [
        {
          "internalType": "uint256",
          "name": "",
          "type": "uint256"
        }
      ],
      "stateMutability": "view",
      "type": "function"
    },
    {
      "inputs": [
        {
          "internalType": "address",
          "name": "",
          "type": "address"
        },
        {
          "internalType": "address",
          "name": "",
          "type": "address"
        },
        {
          "internalType": "uint256[]",
          "name": "",
          "type": "uint256[]"
        },
        {
          "internalType": "uint256[]",
          "name": "",
          "type": "uint256[]"
        },
        {
          "internalType": "bytes",
          "name": "",
          "type": "bytes"
        }
      ],
      "name": "onERC1155BatchReceived",
      "outputs": [
        {
          "internalType": "bytes4",
          "name": "",
          "type": "bytes4"
        }
      ],
      "stateMutability": "nonpayable",
      "type": "function"
    },
    {
      "inputs": [
        {
          "internalType": "address",
          "name": "",
          "type": "address"
        },
        {
          "internalType": "address",
          "name": "",
          "type": "address"
        },
        {
          "internalType": "uint256",
          "name": "",
          "type": "uint256"
        },
        {
          "internalType": "uint256",
          "name": "",
          "type": "uint256"
        },
        {
          "internalType": "bytes",
          "name": "",
          "type": "bytes"
        }
      ],
      "name": "onERC1155Received",
      "outputs": [
        {
          "internalType": "bytes4",
          "name": "",
          "type": "bytes4"
        }
      ],
      "stateMutability": "nonpayable",
      "type": "function"
    },
    {
      "inputs": [],
      "name": "owner",
      "outputs": [
        {
          "internalType": "address",
          "name": "",
          "type": "address"
        }
      ],
      "stateMutability": "view",
      "type": "function"
    },
    {
      "inputs": [],
      "name": "pause",
      "outputs": [],
      "stateMutability": "nonpayable",
      "type": "function"
    },
    {
      "inputs": [],
      "name": "paused",
      "outputs": [
        {
          "internalType": "bool",
          "name": "",
          "type": "bool"
        }
      ],
      "stateMutability": "view",
      "type": "function"
    },
    {
      "inputs": [],
      "name": "renounceOwnership",
      "outputs": [],
      "stateMutability": "nonpayable",
      "type": "function"
    },
    {
      "inputs": [],
      "name": "scc",
      "outputs": [
        {
          "internalType": "contract StabilizedCarbonCoin",
          "name": "",
          "type": "address"
        }
      ],
      "stateMutability": "view",
      "type": "function"
    },
    {
      "inputs": [
        {
          "internalType": "uint256",
          "name": "_maxScanRange",
          "type": "uint256"
        }
      ],
      "name": "setMaxScanRange",
      "outputs": [],
      "stateMutability": "nonpayable",
      "type": "function"
    },
    {
      "inputs": [
        {
          "internalType": "bytes4",
          "name": "interfaceId",
          "type": "bytes4"
        }
      ],
      "name": "supportsInterface",
      "outputs": [
        {
          "internalType": "bool",
          "name": "",
          "type": "bool"
        }
      ],
      "stateMutability": "view",
      "type": "function"
    },
    {
      "inputs": [
        {
          "internalType": "address",
          "name": "newOwner",
          "type": "address"
        }
      ],
      "name": "transferOwnership",
      "outputs": [],
      "stateMutability": "nonpayable",
      "type": "function"
    },
    {
      "inputs": [],
      "name": "unpause",
      "outputs": [],
      "stateMutability": "nonpayable",
      "type": "function"
    },
    {
      "inputs": [
        {
          "internalType": "uint256",
          "name": "tokenId",
          "type": "uint256"
        }
      ],
      "name": "withdraw",
      "outputs": [],
      "stateMutability": "nonpayable",
      "type": "function"
    },
    {
      "inputs": [
        {
          "internalType": "uint256[]",
          "name": "tokenIds",
          "type": "uint256[]"
        }
      ],
      "name": "withdrawBatch",
      "outputs": [],
      "stateMutability": "nonpayable",
      "type": "function"
    }
  ],
  "bytecode": "0x60c0346101ef57601f61263a38819003918201601f19168301916001600160401b038311848410176101f45780849260409485528339810103126101ef57610052602061004b8361020a565b920161020a565b600160005533156101d95760018054610100600160a81b0319811633600881811b610100600160a81b031692909217909355604051949291901c6001600160a01b03167f8be0079c531659141344cd1fd0a4f28419497f9722a3daafe3b4186f6b6457e0600080a36127106003556001600160a01b03169182156101a457506001600160a01b03169081156101715760805260a05260405161241b908161021f82396080518181816102b001528181610764015281816109e001528181610c2b01528181610e6601528181611105015281816113c6015281816115370152818161166f01528181611c14015281816120770152612292015260a05181818161033c015281816108a001528181610b4b0152818161122a01526114930152f35b60405162461bcd60e51b815260206004820152600b60248201526a696e76616c69642073636360a81b6044820152606490fd5b62461bcd60e51b815260206004820152601060248201526f1a5b9d985b1a59081958dbd05cdcd95d60821b6044820152606490fd5b631e4fbdf760e01b600052600060045260246000fd5b600080fd5b634e487b7160e01b600052604160045260246000fd5b51906001600160a01b03821682036101ef5756fe608080604052600436101561001357600080fd5b600090813560e01c90816301ffc9a71461180b5750806302bf321f146116405780632e1a7d4d146113ea57806337989f33146113a65780633f4ba83a1461133e57806348f4da20146113215780634eb7aafa1461126b57806353a3bc371461124e578063543acd501461120a5780635b2cb00a146110a75780635c975abb146110845780636ba5cb6a14611066578063715018a614610ffa5780637fa8bf4f14610fd65780638456cb5914610f7c57806388db7e3514610f625780638da5cb5b14610f3857806390ed04f214610e405780639c8d415614610ada578063aa3b6867146109a8578063b6b55f25146106fe578063bc197c8114610665578063be74c3b21461062c578063c521c0c5146105fe578063e1ec3c68146105be578063e3c7309b14610268578063f23a6e611461020d5763f2fde38b1461015557600080fd5b3461020a57602036600319011261020a5761016e611860565b6101766123e2565b6001600160a01b0381169081156101f6576001600160a01b039074ffffffffffffffffffffffffffffffffffffffff006001549160081b1674ffffffffffffffffffffffffffffffffffffffff001982161760015560081c167f8be0079c531659141344cd1fd0a4f28419497f9722a3daafe3b4186f6b6457e08380a380f35b631e4fbdf760e01b83526004839052602483fd5b80fd5b503461020a5760a036600319011261020a57610227611860565b50610230611876565b5060843567ffffffffffffffff811161026457610251903690600401611a23565b5060405163f23a6e6160e01b8152602090f35b5080fd5b503461020a57610277366118ea565b6102829291926123a3565b61028a6123c5565b610295811515611d68565b6102a26014821115611db4565b819082936001600160a01b037f000000000000000000000000000000000000000000000000000000000000000016945b82811061040157506102e382611a8f565b94845b8381106103ec5750948585963b156103e85761031e9386809460405196879586948593631759616b60e11b8552303360048701611e69565b03925af19081156103dd5783916103c5575b50506001600160a01b037f000000000000000000000000000000000000000000000000000000000000000016803b156103c1576040516340c10f1960e01b8152336004820152602481019290925282908290818381604481015b03925af180156103b6576103a1575b506001905580f35b816103ab91611970565b61020a578038610399565b6040513d84823e3d90fd5b5050fd5b816103cf91611970565b6103da578138610330565b50fd5b6040513d85823e3d90fd5b8580fd5b8060016103fa81938a611ac1565b52016102e6565b61040c818484611e00565b3593848652600260205261042a60ff604088205460a01c1615611aeb565b604051627eeac760e11b8152336004820152602481018690526020816044818b5afa801561057e578790610589575b61046591501515611ee9565b6040516327b2595f60e11b81526004810186905286816024818b5afa90811561057e579061049b918891610557575b5015611ff5565b6105006040516104aa8161193e565b33815260016020808301918252888a52600290526040892091518254915174ffffffffffffffffffffffffffffffffffffffffff199092166001600160a01b03919091161790151560a01b60ff60a01b16179055565b6801158e460913d000008101809111610543579060019194337f2da466a7b24304f47e87fa2e1e5a81b9831ce54fec19055ce277ca2f39ba42c48880a3016102d2565b634e487b7160e01b86526011600452602486fd5b61057391503d808a833e61056b8183611970565b810190611f49565b935050505038610494565b6040513d89823e3d90fd5b5060203d81116105b7575b61059e8183611970565b6020826000928101031261020a57506104659051610459565b503d610594565b503461020a57602036600319011261020a576040809160043581526002602052205460ff8251916001600160a01b038116835260a01c1615156020820152f35b503461020a57604036600319011261020a57604061062060243560043561225b565b82519182526020820152f35b503461020a5761065b610647610641366118c0565b91612041565b60405192839260408452604084019061188c565b9060208301520390f35b503461020a5760a036600319011261020a5761067f611860565b50610688611876565b5060443567ffffffffffffffff8111610264576106a99036906004016119aa565b5060643567ffffffffffffffff8111610264576106ca9036906004016119aa565b5060843567ffffffffffffffff8111610264576106eb903690600401611a23565b5060405163bc197c8160e01b8152602090f35b503461020a57602036600319011261020a5760043561071b6123a3565b6107236123c5565b808252600260205261073f60ff604084205460a01c1615611aeb565b604051627eeac760e11b81523360048201526024810182905282906001600160a01b037f00000000000000000000000000000000000000000000000000000000000000001690602081604481855afa9081156103dd57839161096b575b506107a8901515611ee9565b6040516327b2595f60e11b8152600481018490528281602481855afa80156103dd576107db918491610957575015611ff5565b6108406040516107ea8161193e565b33815260016020808301918252868652600290526040852091518254915174ffffffffffffffffffffffffffffffffffffffffff199092166001600160a01b03919091161790151560a01b60ff60a01b16179055565b803b1561026457604051637921219560e11b8152336004820152306024820152604481018490526001606482015260a06084820152600060a4820152908290829060c490829084905af180156103b657610942575b506001600160a01b037f000000000000000000000000000000000000000000000000000000000000000016803b15610264578180916044604051809481936340c10f1960e01b83523360048401526801158e460913d0000060248401525af180156103b65761092d575b5050337f2da466a7b24304f47e87fa2e1e5a81b9831ce54fec19055ce277ca2f39ba42c48380a36001815580f35b8161093791611970565b6102645781386108ff565b8161094c91611970565b610264578138610895565b61057391503d8086833e61056b8183611970565b9250506020823d6020116109a0575b8161098760209383611970565b8101031261099b576107a88492519061079c565b600080fd5b3d915061097a565b503461020a57602036600319011261020a576109c2611860565b90604051631a90debf60e11b81526020816004816001600160a01b037f0000000000000000000000000000000000000000000000000000000000000000165afa9081156103b6578291610aa8575b506003549081811115610aa05750905b809260015b83811115610a3857602085604051908152f35b808352600260205260ff604084205460a01c1680610a79575b610a64575b610a5f90611a6a565b610a25565b93610a71610a5f91611a6a565b949050610a56565b5080835260026020526001600160a01b036040842054166001600160a01b03831614610a51565b905090610a20565b90506020813d602011610ad2575b81610ac360209383611970565b8101031261099b575138610a10565b3d9150610ab6565b503461020a57610ae9366118ea565b610af49291926123a3565b610afc6123c5565b8015610b088115611d68565b610b156014831115611db4565b6801158e460913d000008202908282046801158e460913d00000141715610e2c576040516370a0823160e01b81523360048201527f00000000000000000000000000000000000000000000000000000000000000006001600160a01b03169190602081602481865afa908115610ce1579082918691610df7575b5010610db257835b838110610cec57506040516323b872dd60e01b81523360048201523060248201526044810182905260208160648188875af18015610ce157610caa575b50813b15610ca6578391602483926040519485938492630852cd8d60e31b845260048401525af180156103dd57908391610c91575b5050610c1481611a8f565b92825b828110610c7c575082936001600160a01b037f000000000000000000000000000000000000000000000000000000000000000016803b15610c785761038a9385809460405196879586948593631759616b60e11b8552333060048701611e69565b8480fd5b806001610c8a819388611ac1565b5201610c17565b81610c9b91611970565b610264578138610c09565b8380fd5b6020813d602011610cd9575b81610cc360209383611970565b81010312610c7857610cd490611e5c565b610bd4565b3d9150610cb6565b6040513d87823e3d90fd5b610cf7818588611e00565b3590818652600260205260ff604087205460a01c1615610d6d578160019287526002602052610d34336001600160a01b0360408a20541614611e10565b8087526002602052866040812055337f7084f5476618d8e60b11ef0d7d3f06914655adb8793e28ff7f018d4c76d505d58880a301610b97565b60405162461bcd60e51b815260206004820152600f60248201527f6c6f616e206e6f742061637469766500000000000000000000000000000000006044820152606490fd5b60405162461bcd60e51b815260206004820152601060248201527f696e73756666696369656e7420534343000000000000000000000000000000006044820152606490fd5b9150506020813d602011610e24575b81610e1360209383611970565b8101031261099b5781905138610b8f565b3d9150610e06565b634e487b7160e01b83526011600452602483fd5b503461020a578060031936011261020a57604051631a90debf60e11b81526020816004817f00000000000000000000000000000000000000000000000000000000000000006001600160a01b03165afa9081156103b6578291610f06575b506003549081811115610eff57505b8160015b82811115610ec457602084604051908152f35b808252600260205260ff604083205460a01c16610eea575b610ee590611a6a565b610eb1565b92610ef7610ee591611a6a565b939050610edc565b9050610ead565b90506020813d602011610f30575b81610f2160209383611970565b8101031261099b575138610e9e565b3d9150610f14565b503461020a578060031936011261020a5760206001600160a01b0360015460081c16604051908152f35b503461020a576040610620610f76366118c0565b91611bdc565b503461020a578060031936011261020a57610f956123e2565b610f9d6123c5565b600160ff19815416176001557f62e78cea01bee320cd4e420270b5ea74000d11b0c9f74754ebdbfc544b05a2586020604051338152a180f35b503461020a578060031936011261020a5760206040516801158e460913d000008152f35b503461020a578060031936011261020a576110136123e2565b806001600160a01b0360015474ffffffffffffffffffffffffffffffffffffffff0019811660015560081c167f8be0079c531659141344cd1fd0a4f28419497f9722a3daafe3b4186f6b6457e08280a380f35b503461020a578060031936011261020a576020600354604051908152f35b503461020a578060031936011261020a57602060ff600154166040519015158152f35b503461020a57604036600319011261020a576004356110c4611876565b6110cc6123e2565b81835260026020526110e860ff604085205460a01c1615611aeb565b6001600160a01b0381169081156111c55783906001600160a01b037f000000000000000000000000000000000000000000000000000000000000000016803b156111c157604051637921219560e11b81523060048201526001600160a01b03929092166024830152604482018590526001606483015260a06084830152600060a48301528290829060c490829084905af180156103b6576111ac575b50807f1b79409798ab74f249555c31f93a33061f18d32656851f4453cce197524f103691a380f35b816111b691611970565b6111c1578238611184565b8280fd5b60405162461bcd60e51b815260206004820152600f60248201527f696e76616c6964206164647265737300000000000000000000000000000000006044820152606490fd5b503461020a578060031936011261020a5760206040516001600160a01b037f0000000000000000000000000000000000000000000000000000000000000000168152f35b503461020a578060031936011261020a57602060405161c3508152f35b503461020a57602036600319011261020a576004356112886123e2565b80151580611315575b156112d05760407f89891195d2526c45afd12704eb2a48a76e420ef9510e32af32375f34c613aa8b91600354908060035582519182526020820152a180f35b60405162461bcd60e51b815260206004820152601460248201527f72616e6765206f75747369646520626f756e64730000000000000000000000006044820152606490fd5b5061c350811115611291565b503461020a578060031936011261020a5760206040516107d08152f35b503461020a578060031936011261020a576113576123e2565b60015460ff8116156113975760ff19166001557f5db9ee0a495bf2e6ff9c91a7834c1ba4fdd244a5e8aa4e537bd38aeae4b073aa6020604051338152a180f35b638dfc202b60e01b8252600482fd5b503461020a578060031936011261020a5760206040516001600160a01b037f0000000000000000000000000000000000000000000000000000000000000000168152f35b503461020a57602036600319011261020a57600435906114086123a3565b6114106123c5565b81815260026020526114576020604083206040519061142e8261193e565b549060ff6001600160a01b0383169283835260a01c161515928391015281611636575b50611e10565b8181526002602052604081207fffffffffffffffffffffff00ffffffffffffffffffffffffffffffffffffffff81541690556001600160a01b037f0000000000000000000000000000000000000000000000000000000000000000166040516323b872dd60e01b81523360048201523060248201526801158e460913d00000604482015260208160648186865af180156103dd576115ff575b50803b1561026457818091602460405180948193630852cd8d60e31b83526801158e460913d0000060048401525af180156103b6576115ef575b5090816001600160a01b037f000000000000000000000000000000000000000000000000000000000000000016803b1561026457604051637921219560e11b8152306004820152336024820152604481018490526001606482015260a06084820152600060a4820152908290829060c490829084905af180156103b6576115da575b5050337f7084f5476618d8e60b11ef0d7d3f06914655adb8793e28ff7f018d4c76d505d58380a36001815580f35b816115e491611970565b6102645781386115ac565b816115f991611970565b3861152a565b6020813d60201161162e575b8161161860209383611970565b810103126111c15761162990611e5c565b6114f0565b3d915061160b565b9050331438611451565b503461020a57602036600319011261020a5761165a611860565b604051631a90debf60e11b81526020816004817f00000000000000000000000000000000000000000000000000000000000000006001600160a01b03165afa9081156103dd5783916117d9575b5060035490818111156117d15750905b8260015b8381111561176957506116cd90611a8f565b92809160015b848111156116f557604051602080825281906116f19082018961188c565b0390f35b808352600260205260ff604084205460a01c1680611742575b611721575b61171c90611a6a565b6116d3565b9261173a818561173461171c948a611ac1565b52611a6a565b939050611713565b5080835260026020526001600160a01b036040842054166001600160a01b0383161461170e565b808552600260205260ff604086205460a01c16806117aa575b611795575b61179090611a6a565b6116bb565b906117a261179091611a6a565b919050611787565b5080855260026020526001600160a01b036040862054166001600160a01b03841614611782565b9050906116b7565b90506020813d602011611803575b816117f460209383611970565b810103126111c15751386116a7565b3d91506117e7565b9050346102645760203660031901126102645760043563ffffffff60e01b81168091036111c15760209250630271189760e51b811490811561184f575b5015158152f35b6301ffc9a760e01b14905038611848565b600435906001600160a01b038216820361099b57565b602435906001600160a01b038216820361099b57565b906020808351928381520192019060005b8181106118aa5750505090565b825184526020938401939092019160010161189d565b606090600319011261099b576004356001600160a01b038116810361099b57906024359060443590565b90602060031983011261099b5760043567ffffffffffffffff811161099b578260238201121561099b5780600401359267ffffffffffffffff841161099b5760248460051b8301011161099b576024019190565b6040810190811067ffffffffffffffff82111761195a57604052565b634e487b7160e01b600052604160045260246000fd5b90601f8019910116810190811067ffffffffffffffff82111761195a57604052565b67ffffffffffffffff811161195a5760051b60200190565b9080601f8301121561099b5781356119c181611992565b926119cf6040519485611970565b81845260208085019260051b82010192831161099b57602001905b8282106119f75750505090565b81358152602091820191016119ea565b67ffffffffffffffff811161195a57601f01601f191660200190565b81601f8201121561099b57803590611a3a82611a07565b92611a486040519485611970565b8284526020838301011161099b57816000926020809301838601378301015290565b6000198114611a795760010190565b634e487b7160e01b600052601160045260246000fd5b90611a9982611992565b611aa66040519182611970565b8281528092611ab7601f1991611992565b0190602036910137565b8051821015611ad55760209160051b010190565b634e487b7160e01b600052603260045260246000fd5b15611af257565b60405162461bcd60e51b815260206004820152600b60248201527f6c6f616e206163746976650000000000000000000000000000000000000000006044820152606490fd5b15611b3e57565b60405162461bcd60e51b815260206004820152601360248201527f73746172744964206d757374206265203e2030000000000000000000000000006044820152606490fd5b15611b8a57565b60405162461bcd60e51b815260206004820152600d60248201527f696e76616c6964206c696d6974000000000000000000000000000000000000006044820152606490fd5b91908201809211611a7957565b9291600093611bec831515611b37565b81151580611d5c575b611bfe90611b83565b604051631a90debf60e11b8152916020836004817f00000000000000000000000000000000000000000000000000000000000000006001600160a01b03165afa928315611d5057600093611d1c575b50828411611d0e57611c5f9084611bcf565b600019810193908411611a7957828411611d05575b83811115611c99575050811015611c935760018101809111611a795790565b50600090565b80600052600260205260ff60406000205460a01c1680611cdc575b611cc7575b611cc290611a6a565b611c74565b94611cd4611cc291611a6a565b959050611cb9565b508060005260026020526001600160a01b03604060002054166001600160a01b03831614611cb4565b92508192611c74565b505050509050600090600090565b90926020823d602011611d48575b81611d3760209383611970565b8101031261020a5750519138611c4d565b3d9150611d2a565b6040513d6000823e3d90fd5b506107d0821115611bf5565b15611d6f57565b60405162461bcd60e51b815260206004820152600b60248201527f656d7074792061727261790000000000000000000000000000000000000000006044820152606490fd5b15611dbb57565b60405162461bcd60e51b815260206004820152600f60248201527f746f6f206d616e7920746f6b656e7300000000000000000000000000000000006044820152606490fd5b9190811015611ad55760051b0190565b15611e1757565b60405162461bcd60e51b815260206004820152600c60248201527f6e6f7420626f72726f77657200000000000000000000000000000000000000006044820152606490fd5b5190811515820361099b57565b9394916001600160a01b03809216855216602084015260a060408401528360a08401527f07ffffffffffffffffffffffffffffffffffffffffffffffffffffffffffffff841161099b5760c0611ed89260209560051b809183870137840181858203016060860152019061188c565b906080818303910152600081520190565b15611ef057565b60405162461bcd60e51b815260206004820152600f60248201527f6e6f7420746f6b656e206f776e657200000000000000000000000000000000006044820152606490fd5b51906001600160a01b038216820361099b57565b919060a08382031261099b57611f5e83611f35565b92602081015192611f7160408301611f35565b92606083015167ffffffffffffffff811161099b57830181601f8201121561099b57805190611f9f82611a07565b92611fad6040519485611970565b8284526020838301011161099b5760005b828110611fe05750508160006020608093611fdd950101529301611e5c565b90565b80602080928401015182828701015201611fbe565b15611ffc57565b60405162461bcd60e51b815260206004820152600e60248201527f72656465656d65642061737365740000000000000000000000000000000000006044820152606490fd5b90929161204f841515611b37565b8015158061224f575b61206190611b83565b604051631a90debf60e11b8152906020826004817f00000000000000000000000000000000000000000000000000000000000000006001600160a01b03165afa918215611d505760009261221b575b508185116121f9576120c29085611bcf565b600019810192908311611a79578183116121f0575b6000855b8481111561218457506120ed90611a8f565b946000905b8481111561211257505050811015611c935760018101809111611a795790565b80600052600260205260ff60406000205460a01c168061215b575b612140575b61213b90611a6a565b6120f2565b90612153818361173461213b948b611ac1565b919050612132565b508060005260026020526001600160a01b03604060002054166001600160a01b0384161461212d565b80600052600260205260ff60406000205460a01c16806121c7575b6121b2575b6121ad90611a6a565b6120db565b906121bf6121ad91611a6a565b9190506121a4565b508060005260026020526001600160a01b03604060002054166001600160a01b0384161461219f565b915080916120d7565b505050905060405161220c602082611970565b60008152600036813790600090565b90916020823d602011612247575b8161223660209383611970565b8101031261020a57505190386120b0565b3d9150612229565b506107d0811115612058565b6000929161226a821515611b37565b80151580612397575b61227c90611b83565b604051631a90debf60e11b8152906020826004817f00000000000000000000000000000000000000000000000000000000000000006001600160a01b03165afa918215611d5057600092612363575b50818311612356576122dd9083611bcf565b600019810192908311611a795781831161234d575b828111156123105750811015611c935760018101809111611a795790565b80600052600260205260ff60406000205460a01c16612338575b61233390611a6a565b6122f2565b9361234561233391611a6a565b94905061232a565b915080916122f2565b5050509050600090600090565b90916020823d60201161238f575b8161237e60209383611970565b8101031261020a57505190386122cb565b3d9150612371565b506107d0811115612273565b6002600054146123b4576002600055565b633ee5aeb560e01b60005260046000fd5b60ff600154166123d157565b63d93c066560e01b60005260046000fd5b6001600160a01b0360015460081c1633036123f957565b63118cdaa760e01b6000523360045260246000fdfea164736f6c634300081b000a",
  "linkReferences": {},
  "deployedLinkReferences": {}
}