{
  "_format": "hh-sol-artifact-1",
  "contractName": "AstaVerde",
  "sourceName": "contracts/AstaVerde.sol",
  "abi": [
    {
      "inputs": [
        {
          "internalType": "address",
          "name": "initialOwner",
          "type": "address"
        },
        {
          "internalType": "contract IERC20",
          "name": "_usdcToken",
          "type": "address"
        }
      ],
      "stateMutability": "nonpayable",
      "type": "constructor"
    },
    {
      "inputs": [
        {
          "internalType": "address",
          "name": "sender",
          "type": "address"
        },
        {
          "internalType": "uint256",
          "name": "balance",
          "type": "uint256"
        },
        {
          "internalType": "uint256",
          "name": "needed",
          "type": "uint256"
        },
        {
          "internalType": "uint256",
          "name": "tokenId",
          "type": "uint256"
        }
      ],
      "name": "ERC1155InsufficientBalance",
      "type": "error"
    },
    {
      "inputs": [
        {
          "internalType": "address",
          "name": "approver",
          "type": "address"
        }
      ],
      "name": "ERC1155InvalidApprover",
      "type": "error"
    },
    {
      "inputs": [
        {
          "internalType": "uint256",
          "name": "idsLength",
          "type": "uint256"
        },
        {
          "internalType": "uint256",
          "name": "valuesLength",
          "type": "uint256"
        }
      ],
      "name": "ERC1155InvalidArrayLength",
      "type": "error"
    },
    {
      "inputs": [
        {
          "internalType": "address",
          "name": "operator",
          "type": "address"
        }
      ],
      "name": "ERC1155InvalidOperator",
      "type": "error"
    },
    {
      "inputs": [
        {
          "internalType": "address",
          "name": "receiver",
          "type": "address"
        }
      ],
      "name": "ERC1155InvalidReceiver",
      "type": "error"
    },
    {
      "inputs": [
        {
          "internalType": "address",
          "name": "sender",
          "type": "address"
        }
      ],
      "name": "ERC1155InvalidSender",
      "type": "error"
    },
    {
      "inputs": [
        {
          "internalType": "address",
          "name": "operator",
          "type": "address"
        },
        {
          "internalType": "address",
          "name": "owner",
          "type": "address"
        }
      ],
      "name": "ERC1155MissingApprovalForAll",
      "type": "error"
    },
    {
      "inputs": [],
      "name": "EnforcedPause",
      "type": "error"
    },
    {
      "inputs": [],
      "name": "ExpectedPause",
      "type": "error"
    },
    {
      "inputs": [
        {
          "internalType": "address",
          "name": "owner",
          "type": "address"
        }
      ],
      "name": "OwnableInvalidOwner",
      "type": "error"
    },
    {
      "inputs": [
        {
          "internalType": "address",
          "name": "account",
          "type": "address"
        }
      ],
      "name": "OwnableUnauthorizedAccount",
      "type": "error"
    },
    {
      "inputs": [],
      "name": "ReentrancyGuardReentrantCall",
      "type": "error"
    },
    {
      "anonymous": false,
      "inputs": [
        {
          "indexed": true,
          "internalType": "address",
          "name": "account",
          "type": "address"
        },
        {
          "indexed": true,
          "internalType": "address",
          "name": "operator",
          "type": "address"
        },
        {
          "indexed": false,
          "internalType": "bool",
          "name": "approved",
          "type": "bool"
        }
      ],
      "name": "ApprovalForAll",
      "type": "event"
    },
    {
      "anonymous": false,
      "inputs": [
        {
          "indexed": false,
          "internalType": "uint256",
          "name": "batchId",
          "type": "uint256"
        },
        {
          "indexed": false,
          "internalType": "uint256",
          "name": "batchCreationTime",
          "type": "uint256"
        }
      ],
      "name": "BatchMinted",
      "type": "event"
    },
    {
      "anonymous": false,
      "inputs": [
        {
          "indexed": false,
          "internalType": "uint256",
          "name": "batchId",
          "type": "uint256"
        },
        {
          "indexed": false,
          "internalType": "uint256",
          "name": "batchSoldTime",
          "type": "uint256"
        },
        {
          "indexed": false,
          "internalType": "uint256",
          "name": "tokensSold",
          "type": "uint256"
        }
      ],
      "name": "BatchSold",
      "type": "event"
    },
    {
      "anonymous": false,
      "inputs": [
        {
          "indexed": true,
          "internalType": "address",
          "name": "previousOwner",
          "type": "address"
        },
        {
          "indexed": true,
          "internalType": "address",
          "name": "newOwner",
          "type": "address"
        }
      ],
      "name": "OwnershipTransferred",
      "type": "event"
    },
    {
      "anonymous": false,
      "inputs": [
        {
          "indexed": false,
          "internalType": "uint256",
          "name": "batchId",
          "type": "uint256"
        },
        {
          "indexed": false,
          "internalType": "uint256",
          "name": "batchSoldTime",
          "type": "uint256"
        },
        {
          "indexed": false,
          "internalType": "uint256",
          "name": "remainingTokens",
          "type": "uint256"
        }
      ],
      "name": "PartialBatchSold",
      "type": "event"
    },
    {
      "anonymous": false,
      "inputs": [
        {
          "indexed": false,
          "internalType": "address",
          "name": "account",
          "type": "address"
        }
      ],
      "name": "Paused",
      "type": "event"
    },
    {
      "anonymous": false,
      "inputs": [
        {
          "indexed": false,
          "internalType": "uint256",
          "name": "newPrice",
          "type": "uint256"
        },
        {
          "indexed": false,
          "internalType": "uint256",
          "name": "timestamp",
          "type": "uint256"
        }
      ],
      "name": "PlatformBasePriceAdjusted",
      "type": "event"
    },
    {
      "anonymous": false,
      "inputs": [
        {
          "indexed": false,
          "internalType": "uint256",
          "name": "newPrice",
          "type": "uint256"
        },
        {
          "indexed": false,
          "internalType": "uint256",
          "name": "timestamp",
          "type": "uint256"
        }
      ],
      "name": "PlatformPriceFloorAdjusted",
      "type": "event"
    },
    {
      "anonymous": false,
      "inputs": [
        {
          "indexed": false,
          "internalType": "uint256",
          "name": "platformSharePercentage",
          "type": "uint256"
        }
      ],
      "name": "PlatformSharePercentageSet",
      "type": "event"
    },
    {
      "anonymous": false,
      "inputs": [
        {
          "indexed": false,
          "internalType": "uint256",
          "name": "tokenId",
          "type": "uint256"
        },
        {
          "indexed": false,
          "internalType": "address",
          "name": "redeemer",
          "type": "address"
        },
        {
          "indexed": false,
          "internalType": "uint256",
          "name": "timestamp",
          "type": "uint256"
        }
      ],
      "name": "TokenReedemed",
      "type": "event"
    },
    {
      "anonymous": false,
      "inputs": [
        {
          "indexed": false,
          "internalType": "uint256",
          "name": "tokenId",
          "type": "uint256"
        },
        {
          "indexed": false,
          "internalType": "address",
          "name": "buyer",
          "type": "address"
        },
        {
          "indexed": false,
          "internalType": "uint256",
          "name": "price",
          "type": "uint256"
        },
        {
          "indexed": false,
          "internalType": "uint256",
          "name": "batchSoldTime",
          "type": "uint256"
        },
        {
          "indexed": false,
          "internalType": "address",
          "name": "producer",
          "type": "address"
        }
      ],
      "name": "TokenSold",
      "type": "event"
    },
    {
      "anonymous": false,
      "inputs": [
        {
          "indexed": true,
          "internalType": "address",
          "name": "operator",
          "type": "address"
        },
        {
          "indexed": true,
          "internalType": "address",
          "name": "from",
          "type": "address"
        },
        {
          "indexed": true,
          "internalType": "address",
          "name": "to",
          "type": "address"
        },
        {
          "indexed": false,
          "internalType": "uint256[]",
          "name": "ids",
          "type": "uint256[]"
        },
        {
          "indexed": false,
          "internalType": "uint256[]",
          "name": "values",
          "type": "uint256[]"
        }
      ],
      "name": "TransferBatch",
      "type": "event"
    },
    {
      "anonymous": false,
      "inputs": [
        {
          "indexed": true,
          "internalType": "address",
          "name": "operator",
          "type": "address"
        },
        {
          "indexed": true,
          "internalType": "address",
          "name": "from",
          "type": "address"
        },
        {
          "indexed": true,
          "internalType": "address",
          "name": "to",
          "type": "address"
        },
        {
          "indexed": false,
          "internalType": "uint256",
          "name": "id",
          "type": "uint256"
        },
        {
          "indexed": false,
          "internalType": "uint256",
          "name": "value",
          "type": "uint256"
        }
      ],
      "name": "TransferSingle",
      "type": "event"
    },
    {
      "anonymous": false,
      "inputs": [
        {
          "indexed": false,
          "internalType": "string",
          "name": "value",
          "type": "string"
        },
        {
          "indexed": true,
          "internalType": "uint256",
          "name": "id",
          "type": "uint256"
        }
      ],
      "name": "URI",
      "type": "event"
    },
    {
      "anonymous": false,
      "inputs": [
        {
          "indexed": false,
          "internalType": "address",
          "name": "account",
          "type": "address"
        }
      ],
      "name": "Unpaused",
      "type": "event"
    },
    {
      "inputs": [],
      "name": "SECONDS_IN_A_DAY",
      "outputs": [
        {
          "internalType": "uint256",
          "name": "",
          "type": "uint256"
        }
      ],
      "stateMutability": "view",
      "type": "function"
    },
    {
      "inputs": [
        {
          "internalType": "address",
          "name": "account",
          "type": "address"
        },
        {
          "internalType": "uint256",
          "name": "id",
          "type": "uint256"
        }
      ],
      "name": "balanceOf",
      "outputs": [
        {
          "internalType": "uint256",
          "name": "",
          "type": "uint256"
        }
      ],
      "stateMutability": "view",
      "type": "function"
    },
    {
      "inputs": [
        {
          "internalType": "address[]",
          "name": "accounts",
          "type": "address[]"
        },
        {
          "internalType": "uint256[]",
          "name": "ids",
          "type": "uint256[]"
        }
      ],
      "name": "balanceOfBatch",
      "outputs": [
        {
          "internalType": "uint256[]",
          "name": "",
          "type": "uint256[]"
        }
      ],
      "stateMutability": "view",
      "type": "function"
    },
    {
      "inputs": [],
      "name": "basePrice",
      "outputs": [
        {
          "internalType": "uint256",
          "name": "",
          "type": "uint256"
        }
      ],
      "stateMutability": "view",
      "type": "function"
    },
    {
      "inputs": [
        {
          "internalType": "uint256",
          "name": "",
          "type": "uint256"
        }
      ],
      "name": "batches",
      "outputs": [
        {
          "internalType": "uint256",
          "name": "batchId",
          "type": "uint256"
        },
        {
          "internalType": "uint256",
          "name": "creationTime",
          "type": "uint256"
        },
        {
          "internalType": "uint256",
          "name": "startingPrice",
          "type": "uint256"
        },
        {
          "internalType": "uint256",
          "name": "price",
          "type": "uint256"
        },
        {
          "internalType": "uint256",
          "name": "remainingTokens",
          "type": "uint256"
        }
      ],
      "stateMutability": "view",
      "type": "function"
    },
    {
      "inputs": [
        {
          "internalType": "uint256",
          "name": "batchID",
          "type": "uint256"
        },
        {
          "internalType": "uint256",
          "name": "usdcAmount",
          "type": "uint256"
        },
        {
          "internalType": "uint256",
          "name": "tokenAmount",
          "type": "uint256"
        }
      ],
      "name": "buyBatch",
      "outputs": [],
      "stateMutability": "nonpayable",
      "type": "function"
    },
    {
      "inputs": [
        {
          "internalType": "address",
          "name": "to",
          "type": "address"
        }
      ],
      "name": "claimPlatformFunds",
      "outputs": [],
      "stateMutability": "nonpayable",
      "type": "function"
    },
    {
      "inputs": [],
      "name": "dayDecreaseThreshold",
      "outputs": [
        {
          "internalType": "uint256",
          "name": "",
          "type": "uint256"
        }
      ],
      "stateMutability": "view",
      "type": "function"
    },
    {
      "inputs": [],
      "name": "dayIncreaseThreshold",
      "outputs": [
        {
          "internalType": "uint256",
          "name": "",
          "type": "uint256"
        }
      ],
      "stateMutability": "view",
      "type": "function"
    },
    {
      "inputs": [
        {
          "internalType": "uint256",
          "name": "batchID",
          "type": "uint256"
        }
      ],
      "name": "getBatchInfo",
      "outputs": [
        {
          "internalType": "uint256",
          "name": "batchId",
          "type": "uint256"
        },
        {
          "internalType": "uint256[]",
          "name": "tokenIds",
          "type": "uint256[]"
        },
        {
          "internalType": "uint256",
          "name": "creationTime",
          "type": "uint256"
        },
        {
          "internalType": "uint256",
          "name": "price",
          "type": "uint256"
        },
        {
          "internalType": "uint256",
          "name": "remainingTokens",
          "type": "uint256"
        }
      ],
      "stateMutability": "view",
      "type": "function"
    },
    {
      "inputs": [
        {
          "internalType": "uint256",
          "name": "batchID",
          "type": "uint256"
        }
      ],
      "name": "getBatchPrice",
      "outputs": [
        {
          "internalType": "uint256",
          "name": "",
          "type": "uint256"
        }
      ],
      "stateMutability": "view",
      "type": "function"
    },
    {
      "inputs": [
        {
          "internalType": "address",
          "name": "account",
          "type": "address"
        },
        {
          "internalType": "address",
          "name": "operator",
          "type": "address"
        }
      ],
      "name": "isApprovedForAll",
      "outputs": [
        {
          "internalType": "bool",
          "name": "",
          "type": "bool"
        }
      ],
      "stateMutability": "view",
      "type": "function"
    },
    {
      "inputs": [],
      "name": "lastBatchID",
      "outputs": [
        {
          "internalType": "uint256",
          "name": "",
          "type": "uint256"
        }
      ],
      "stateMutability": "view",
      "type": "function"
    },
    {
      "inputs": [],
      "name": "lastBatchSoldTime",
      "outputs": [
        {
          "internalType": "uint256",
          "name": "",
          "type": "uint256"
        }
      ],
      "stateMutability": "view",
      "type": "function"
    },
    {
      "inputs": [],
      "name": "lastTokenID",
      "outputs": [
        {
          "internalType": "uint256",
          "name": "",
          "type": "uint256"
        }
      ],
      "stateMutability": "view",
      "type": "function"
    },
    {
      "inputs": [],
      "name": "maxBatchSize",
      "outputs": [
        {
          "internalType": "uint256",
          "name": "",
          "type": "uint256"
        }
      ],
      "stateMutability": "view",
      "type": "function"
    },
    {
      "inputs": [
        {
          "internalType": "address[]",
          "name": "producers",
          "type": "address[]"
        },
        {
          "internalType": "string[]",
          "name": "cids",
          "type": "string[]"
        }
      ],
      "name": "mintBatch",
      "outputs": [],
      "stateMutability": "nonpayable",
      "type": "function"
    },
    {
      "inputs": [
        {
          "internalType": "address",
          "name": "",
          "type": "address"
        },
        {
          "internalType": "address",
          "name": "",
          "type": "address"
        },
        {
          "internalType": "uint256[]",
          "name": "",
          "type": "uint256[]"
        },
        {
          "internalType": "uint256[]",
          "name": "",
          "type": "uint256[]"
        },
        {
          "internalType": "bytes",
          "name": "",
          "type": "bytes"
        }
      ],
      "name": "onERC1155BatchReceived",
      "outputs": [
        {
          "internalType": "bytes4",
          "name": "",
          "type": "bytes4"
        }
      ],
      "stateMutability": "pure",
      "type": "function"
    },
    {
      "inputs": [
        {
          "internalType": "address",
          "name": "",
          "type": "address"
        },
        {
          "internalType": "address",
          "name": "",
          "type": "address"
        },
        {
          "internalType": "uint256",
          "name": "",
          "type": "uint256"
        },
        {
          "internalType": "uint256",
          "name": "",
          "type": "uint256"
        },
        {
          "internalType": "bytes",
          "name": "",
          "type": "bytes"
        }
      ],
      "name": "onERC1155Received",
      "outputs": [
        {
          "internalType": "bytes4",
          "name": "",
          "type": "bytes4"
        }
      ],
      "stateMutability": "pure",
      "type": "function"
    },
    {
      "inputs": [],
      "name": "owner",
      "outputs": [
        {
          "internalType": "address",
          "name": "",
          "type": "address"
        }
      ],
      "stateMutability": "view",
      "type": "function"
    },
    {
      "inputs": [],
      "name": "pause",
      "outputs": [],
      "stateMutability": "nonpayable",
      "type": "function"
    },
    {
      "inputs": [],
      "name": "paused",
      "outputs": [
        {
          "internalType": "bool",
          "name": "",
          "type": "bool"
        }
      ],
      "stateMutability": "view",
      "type": "function"
    },
    {
      "inputs": [],
      "name": "platformShareAccumulated",
      "outputs": [
        {
          "internalType": "uint256",
          "name": "",
          "type": "uint256"
        }
      ],
      "stateMutability": "view",
      "type": "function"
    },
    {
      "inputs": [],
      "name": "platformSharePercentage",
      "outputs": [
        {
          "internalType": "uint256",
          "name": "",
          "type": "uint256"
        }
      ],
      "stateMutability": "view",
      "type": "function"
    },
    {
      "inputs": [],
      "name": "priceDecreaseRate",
      "outputs": [
        {
          "internalType": "uint256",
          "name": "",
          "type": "uint256"
        }
      ],
      "stateMutability": "view",
      "type": "function"
    },
    {
      "inputs": [],
      "name": "priceDelta",
      "outputs": [
        {
          "internalType": "uint256",
          "name": "",
          "type": "uint256"
        }
      ],
      "stateMutability": "view",
      "type": "function"
    },
    {
      "inputs": [],
      "name": "priceFloor",
      "outputs": [
        {
          "internalType": "uint256",
          "name": "",
          "type": "uint256"
        }
      ],
      "stateMutability": "view",
      "type": "function"
    },
    {
      "inputs": [
        {
          "internalType": "uint256[]",
          "name": "tokenIds",
          "type": "uint256[]"
        }
      ],
      "name": "redeemTokens",
      "outputs": [],
      "stateMutability": "nonpayable",
      "type": "function"
    },
    {
      "inputs": [],
      "name": "renounceOwnership",
      "outputs": [],
      "stateMutability": "nonpayable",
      "type": "function"
    },
    {
      "inputs": [
        {
          "internalType": "address",
          "name": "from",
          "type": "address"
        },
        {
          "internalType": "address",
          "name": "to",
          "type": "address"
        },
        {
          "internalType": "uint256[]",
          "name": "ids",
          "type": "uint256[]"
        },
        {
          "internalType": "uint256[]",
          "name": "values",
          "type": "uint256[]"
        },
        {
          "internalType": "bytes",
          "name": "data",
          "type": "bytes"
        }
      ],
      "name": "safeBatchTransferFrom",
      "outputs": [],
      "stateMutability": "nonpayable",
      "type": "function"
    },
    {
      "inputs": [
        {
          "internalType": "address",
          "name": "from",
          "type": "address"
        },
        {
          "internalType": "address",
          "name": "to",
          "type": "address"
        },
        {
          "internalType": "uint256",
          "name": "id",
          "type": "uint256"
        },
        {
          "internalType": "uint256",
          "name": "value",
          "type": "uint256"
        },
        {
          "internalType": "bytes",
          "name": "data",
          "type": "bytes"
        }
      ],
      "name": "safeTransferFrom",
      "outputs": [],
      "stateMutability": "nonpayable",
      "type": "function"
    },
    {
      "inputs": [
        {
          "internalType": "address",
          "name": "operator",
          "type": "address"
        },
        {
          "internalType": "bool",
          "name": "approved",
          "type": "bool"
        }
      ],
      "name": "setApprovalForAll",
      "outputs": [],
      "stateMutability": "nonpayable",
      "type": "function"
    },
    {
      "inputs": [
        {
          "internalType": "uint256",
          "name": "increase",
          "type": "uint256"
        },
        {
          "internalType": "uint256",
          "name": "decrease",
          "type": "uint256"
        }
      ],
      "name": "setAuctionTimeThresholds",
      "outputs": [],
      "stateMutability": "nonpayable",
      "type": "function"
    },
    {
      "inputs": [
        {
          "internalType": "uint256",
          "name": "newStartingPrice",
          "type": "uint256"
        }
      ],
      "name": "setBasePrice",
      "outputs": [],
      "stateMutability": "nonpayable",
      "type": "function"
    },
    {
      "inputs": [
        {
          "internalType": "uint256",
          "name": "newSize",
          "type": "uint256"
        }
      ],
      "name": "setMaxBatchSize",
      "outputs": [],
      "stateMutability": "nonpayable",
      "type": "function"
    },
    {
      "inputs": [
        {
          "internalType": "uint256",
          "name": "newSharePercentage",
          "type": "uint256"
        }
      ],
      "name": "setPlatformSharePercentage",
      "outputs": [],
      "stateMutability": "nonpayable",
      "type": "function"
    },
    {
      "inputs": [
        {
          "internalType": "uint256",
          "name": "newPriceFloor",
          "type": "uint256"
        }
      ],
      "name": "setPriceFloor",
      "outputs": [],
      "stateMutability": "nonpayable",
      "type": "function"
    },
    {
      "inputs": [
        {
          "internalType": "string",
          "name": "newuri",
          "type": "string"
        }
      ],
      "name": "setURI",
      "outputs": [],
      "stateMutability": "nonpayable",
      "type": "function"
    },
    {
      "inputs": [
        {
          "internalType": "bytes4",
          "name": "interfaceId",
          "type": "bytes4"
        }
      ],
      "name": "supportsInterface",
      "outputs": [
        {
          "internalType": "bool",
          "name": "",
          "type": "bool"
        }
      ],
      "stateMutability": "view",
      "type": "function"
    },
    {
      "inputs": [
        {
          "internalType": "uint256",
          "name": "",
          "type": "uint256"
        }
      ],
      "name": "tokens",
      "outputs": [
        {
          "internalType": "uint256",
          "name": "tokenId",
          "type": "uint256"
        },
        {
          "internalType": "address",
          "name": "producer",
          "type": "address"
        },
        {
          "internalType": "string",
          "name": "cid",
          "type": "string"
        },
        {
          "internalType": "bool",
          "name": "isRedeemed",
          "type": "bool"
        }
      ],
      "stateMutability": "view",
      "type": "function"
    },
    {
      "inputs": [
        {
          "internalType": "address",
          "name": "newOwner",
          "type": "address"
        }
      ],
      "name": "transferOwnership",
      "outputs": [],
      "stateMutability": "nonpayable",
      "type": "function"
    },
    {
      "inputs": [],
      "name": "unpause",
      "outputs": [],
      "stateMutability": "nonpayable",
      "type": "function"
    },
    {
      "inputs": [
        {
          "internalType": "uint256",
          "name": "tokenId",
          "type": "uint256"
        }
      ],
      "name": "uri",
      "outputs": [
        {
          "internalType": "string",
          "name": "",
          "type": "string"
        }
      ],
      "stateMutability": "view",
      "type": "function"
    },
    {
      "inputs": [],
      "name": "usdcToken",
      "outputs": [
        {
          "internalType": "contract IERC20",
          "name": "",
          "type": "address"
        }
      ],
      "stateMutability": "view",
      "type": "function"
    }
  ],
  "bytecode": "0x60806040523480156200001157600080fd5b50604051620044a1380380620044a18339810160408190526200003491620001b2565b604080518082019091526007815266697066733a2f2f60c81b602082015282906200005f816200012d565b506003805460ff191690556001600160a01b0381166200009957604051631e4fbdf760e01b81526000600482015260240160405180910390fd5b620000a4816200013f565b506001600455600580546001600160a01b0319166001600160a01b038316179055601e6006556032600755620000df620f424060e6620001f1565b600c55620000f2620f42406028620001f1565b600d5562000105620f4240600a620001f1565b600e5562000118620f42406001620001f1565b600f555050600260105560046011556200038e565b60026200013b8282620002c2565b5050565b600380546001600160a01b03838116610100818102610100600160a81b031985161790945560405193909204169182907f8be0079c531659141344cd1fd0a4f28419497f9722a3daafe3b4186f6b6457e090600090a35050565b6001600160a01b0381168114620001af57600080fd5b50565b60008060408385031215620001c657600080fd5b8251620001d38162000199565b6020840151909250620001e68162000199565b809150509250929050565b80820281158282048414176200021757634e487b7160e01b600052601160045260246000fd5b92915050565b634e487b7160e01b600052604160045260246000fd5b600181811c908216806200024857607f821691505b6020821081036200026957634e487b7160e01b600052602260045260246000fd5b50919050565b601f821115620002bd57600081815260208120601f850160051c81016020861015620002985750805b601f850160051c820191505b81811015620002b957828155600101620002a4565b5050505b505050565b81516001600160401b03811115620002de57620002de6200021d565b620002f681620002ef845462000233565b846200026f565b602080601f8311600181146200032e5760008415620003155750858301515b600019600386901b1c1916600185901b178555620002b9565b600085815260208120601f198616915b828110156200035f578886015182559484019460019091019084016200033e565b50858210156200037e5787850151600019600388901b60f8161c191681555b5050505050600190811b01905550565b614103806200039e6000396000f3fe608060405234801561001057600080fd5b50600436106102f35760003560e01c80637a8a308211610191578063c3c5075f116100e3578063eecb24ec11610097578063f2fde38b11610071578063f2fde38b1461066d578063f75f3e2a14610680578063f9cfa06f1461068957600080fd5b8063eecb24ec14610631578063f23a6e611461063a578063f242432a1461065a57600080fd5b8063d5340e2d116100c8578063d5340e2d146105d9578063de4b3262146105e2578063e985e9c5146105f557600080fd5b8063c3c5075f146105c7578063c7876ea4146105d057600080fd5b80638c643a8611610145578063a22cb4651161011f578063a22cb4651461053e578063b32c4d8d14610551578063bc197c811461058c57600080fd5b80638c643a861461050c5780638da5cb5b14610515578063924cff6d1461052b57600080fd5b806381d560f81161017657806381d560f8146104e85780638456cb59146104fb5780638bf01b7d1461050357600080fd5b80637a8a3082146104cc5780637cde5a0d146104d557600080fd5b80632eb2c2d61161024a5780635a688803116101fe578063673afffc116101d8578063673afffc1461049e578063704b8cd8146104b1578063715018a6146104c457600080fd5b80635a688803146104815780635bfa896a1461048a5780635c975abb1461049357600080fd5b80633f4ba83a1161022f5780633f4ba83a146104365780634e1273f41461043e5780634f64b2be1461045e57600080fd5b80632eb2c2d61461041a5780633521bd7e1461042d57600080fd5b80630e89341c116102ac5780632913daa0116102865780632913daa0146103eb5780632b26a6bf146103f45780632bd92dd31461040757600080fd5b80630e89341c1461037c57806311eac8551461039c5780631a0058f5146103c757600080fd5b8063020bb757116102dd578063020bb7571461034157806302fe5305146103565780630de2f2731461036957600080fd5b8062fdd58e146102f857806301ffc9a71461031e575b600080fd5b61030b61030636600461343d565b610693565b6040519081526020015b60405180910390f35b61033161032c36600461347d565b6106bb565b6040519015158152602001610315565b61035461034f3660046134a1565b61070b565b005b610354610364366004613571565b6107a9565b6103546103773660046135ae565b6107bd565b61038f61038a3660046134a1565b6108e5565b6040516103159190613620565b6005546103af906001600160a01b031681565b6040516001600160a01b039091168152602001610315565b6103da6103d53660046134a1565b610929565b60405161031595949392919061366e565b61030b60075481565b6103546104023660046134a1565b610a6e565b61030b6104153660046134a1565b610acb565b610354610428366004613733565b610c59565b61030b60095481565b610354610cdf565b61045161044c36600461383f565b610cf1565b60405161031591906138a3565b61047161046c3660046134a1565b610dc6565b60405161031594939291906138b6565b61030b600d5481565b61030b600e5481565b60035460ff16610331565b6103546104ac3660046138f1565b610e84565b6103546104bf36600461391d565b611be2565b610354611e65565b61030b60085481565b6103546104e3366004613952565b611e77565b6103546104f63660046134a1565b61200c565b61035461209a565b61030b60115481565b61030b600a5481565b60035461010090046001600160a01b03166103af565b61035461053936600461396d565b6120aa565b61035461054c366004613a50565b6125ba565b61056461055f3660046134a1565b6125c5565b604080519586526020860194909452928401919091526060830152608082015260a001610315565b6105ae61059a366004613b15565b63bc197c8160e01b98975050505050505050565b6040516001600160e01b03199091168152602001610315565b61030b60105481565b61030b600c5481565b61030b600b5481565b6103546105f03660046134a1565b612606565b610331610603366004613bd0565b6001600160a01b03918216600090815260016020908152604080832093909416825291909152205460ff1690565b61030b600f5481565b6105ae610648366004613c03565b63f23a6e6160e01b9695505050505050565b610354610668366004613c7b565b612698565b61035461067b366004613952565b612716565b61030b60065481565b61030b6201518081565b6000818152602081815260408083206001600160a01b03861684529091529020545b92915050565b60006001600160e01b03198216636cdb3d1360e11b14806106ec57506001600160e01b031982166303a24d0760e21b145b806106b557506301ffc9a760e01b6001600160e01b03198316146106b5565b610713612751565b600081116107685760405162461bcd60e51b815260206004820152601360248201527f496e76616c696420707269636520666c6f6f720000000000000000000000000060448201526064015b60405180910390fd5b600d819055604080518281524260208201527fa08746addac06e13c8af77dadb8f628958df4cd55da30de040b3fb9ae298c07291015b60405180910390a150565b6107b1612751565b6107ba81612784565b50565b6107c5612751565b600082116108155760405162461bcd60e51b815260206004820152601a60248201527f496e76616c696420696e637265617365207468726573686f6c64000000000000604482015260640161075f565b600081116108655760405162461bcd60e51b815260206004820152601a60248201527f496e76616c6964206465637265617365207468726573686f6c64000000000000604482015260640161075f565b8082106108da5760405162461bcd60e51b815260206004820152603860248201527f496e637265617365207468726573686f6c64206d757374206265206c6f77657260448201527f207468616e206465637265617365207468726573686f6c640000000000000000606482015260840161075f565b601091909155601155565b60606108f082612790565b600083815260126020908152604091829020915161091393926002019101613d1a565b6040516020818303038152906040529050919050565b6000606060008060006013805490508611156109875760405162461bcd60e51b815260206004820152601960248201527f4261746368204944206973206f7574206f6620626f756e647300000000000000604482015260640161075f565b60006013878154811061099c5761099c613da7565b90600052602060002090600602016040518060c00160405290816000820154815260200160018201805480602002602001604051908101604052809291908181526020018280548015610a0e57602002820191906000526020600020905b8154815260200190600101908083116109fa575b505050505081526020016002820154815260200160038201548152602001600482015481526020016005820154815250509050610a4a87610acb565b81516020830151604084015160a090940151919a9099509297509095509350915050565b610a76612751565b60008111610ac65760405162461bcd60e51b815260206004820152601260248201527f496e76616c69642062617463682073697a650000000000000000000000000000604482015260640161075f565b600755565b6013546000908210610b1f5760405162461bcd60e51b815260206004820152601460248201527f426174636820646f6573206e6f74206578697374000000000000000000000000604482015260640161075f565b600060138381548110610b3457610b34613da7565b90600052602060002090600602016040518060c00160405290816000820154815260200160018201805480602002602001604051908101604052809291908181526020018280548015610ba657602002820191906000526020600020905b815481526020019060010190808311610b92575b5050505050815260200160028201548152602001600382015481526020016004820154815260200160058201548152505090506000816040015142610beb9190613dd3565b90506000600f546201518083610c019190613de6565b610c0b9190613e08565b9050600083606001518210610c27575050600d54949350505050565b818460600151610c379190613dd3565b9050600d54811015610c50575050600d54949350505050565b95945050505050565b336001600160a01b0386168114801590610c9957506001600160a01b0380871660009081526001602090815260408083209385168352929052205460ff16155b15610cca5760405163711bec9160e11b81526001600160a01b0380831660048301528716602482015260440161075f565b610cd78686868686612824565b505050505050565b610ce7612751565b610cef61288b565b565b60608151835114610d225781518351604051635b05999160e01b81526004810192909252602482015260440161075f565b6000835167ffffffffffffffff811115610d3e57610d3e6134ba565b604051908082528060200260200182016040528015610d67578160200160208202803683370190505b50905060005b8451811015610dbe57602080820286010151610d9190602080840287010151610693565b828281518110610da357610da3613da7565b6020908102919091010152610db781613e1f565b9050610d6d565b509392505050565b60126020526000908152604090208054600182015460028301805492936001600160a01b0390921692610df890613ce0565b80601f0160208091040260200160405190810160405280929190818152602001828054610e2490613ce0565b8015610e715780601f10610e4657610100808354040283529160200191610e71565b820191906000526020600020905b815481529060010190602001808311610e5457829003601f168201915b5050506003909301549192505060ff1684565b610e8c6128dd565b610e94612901565b610ed56040518060400160405280600881526020017f627579426174636800000000000000000000000000000000000000000000000081525084848461292b565b604080518082018252601081527f636f6e74726163742062616c616e636500000000000000000000000000000000602082015260055491516370a0823160e01b8152306004820152610f7a926001600160a01b0316906370a0823190602401602060405180830381865afa158015610f51573d6000803e3d6000fd5b505050506040513d601f19601f82011682018060405250810190610f759190613e38565b61297a565b600060138481548110610f8f57610f8f613da7565b90600052602060002090600602016002015411610fee5760405162461bcd60e51b815260206004820152601560248201527f4261746368206e6f7420696e697469616c697a65640000000000000000000000604482015260640161075f565b6000811161104e5760405162461bcd60e51b815260206004820152602760248201527f4e756d62657220746f20627579206d7573742062652067726561746572207468604482015266616e207a65726f60c81b606482015260840161075f565b6110b16040518060400160405280601881526020017f62757942617463682072656d61696e696e67546f6b656e7300000000000000008152506013858154811061109a5761109a613da7565b90600052602060002090600602016005015461297a565b601383815481106110c4576110c4613da7565b9060005260206000209060060201600501548111156111255760405162461bcd60e51b815260206004820152601a60248201527f4e6f7420656e6f75676820746f6b656e7320696e206261746368000000000000604482015260640161075f565b600061113084610acb565b9050806013858154811061114657611146613da7565b600091825260208220600460069092020101919091556111668383613e08565b9050808410156111b85760405162461bcd60e51b815260206004820152601760248201527f496e73756666696369656e742066756e64732073656e74000000000000000000604482015260640161075f565b6005546040516323b872dd60e01b8152336004820152306024820152604481018690526001600160a01b03909116906323b872dd906064016020604051808303816000875af115801561120f573d6000803e3d6000fd5b505050506040513d601f19601f820116820180604052508101906112339190613e51565b61127f5760405162461bcd60e51b815260206004820152601960248201527f5472616e736665722066726f6d2075736572206661696c656400000000000000604482015260640161075f565b604080518082018252601a81527f62616c616e63652c20636f6e74726163742062616c616e63653a000000000000602082015260055491516370a0823160e01b81523060048201526113289287916001600160a01b03909116906370a0823190602401602060405180830381865afa1580156112ff573d6000803e3d6000fd5b505050506040513d601f19601f820116820180604052508101906113239190613e38565b6129bf565b80841115611407576005546001600160a01b031663a9059cbb3361134c8488613dd3565b6040516001600160e01b031960e085901b1681526001600160a01b03909216600483015260248201526044016020604051808303816000875af1158015611397573d6000803e3d6000fd5b505050506040513d601f19601f820116820180604052508101906113bb9190613e51565b6114075760405162461bcd60e51b815260206004820152600d60248201527f526566756e64206661696c656400000000000000000000000000000000000000604482015260640161075f565b826013868154811061141b5761141b613da7565b9060005260206000209060060201600501600082825461143b9190613dd3565b909155505060065460009061271090611455906064613e08565b61146190612710613dd3565b61146b9085613e08565b6114759190613de6565b905060006114838285613dd3565b905061148f8582613e08565b600b60008282546114a09190613e6e565b909155508490506114b18284613e6e565b146114be576114be613e81565b6114fd6040518060400160405280600f81526020017f70726963652070657220746f6b656e00000000000000000000000000000000008152508561297a565b61153c6040518060400160405280601581526020017f70726f64756365725368617265506572546f6b656e00000000000000000000008152508361297a565b61157b6040518060400160405280601581526020017f706c6174666f726d5368617265506572546f6b656e00000000000000000000008152508261297a565b6115bc6040518060400160405280601881526020017f706c6174666f726d5368617265416363756d756c617465640000000000000000815250600b5461297a565b6000601388815481106115d1576115d1613da7565b90600052602060002090600602016001018054905086146115fb576115f68887612a06565b61166f565b6013888154811061160e5761160e613da7565b906000526020600020906006020160010180548060200260200160405190810160405280929190818152602001828054801561166957602002820191906000526020600020905b815481526020019060010190808311611655575b50505050505b90506000815167ffffffffffffffff81111561168d5761168d6134ba565b6040519080825280602002602001820160405280156116b6578160200160208202803683370190505b5090506000825167ffffffffffffffff8111156116d5576116d56134ba565b6040519080825280602002602001820160405280156116fe578160200160208202803683370190505b5090506000835167ffffffffffffffff81111561171d5761171d6134ba565b604051908082528060200260200182016040528015611746578160200160208202803683370190505b5090506000805b85518110156118b757600185828151811061176a5761176a613da7565b60200260200101818152505060006012600088848151811061178e5761178e613da7565b602090810291909101810151825281019190915260400160009081206001908101546001600160a01b03169250905b8481101561183c57826001600160a01b03168782815181106117e1576117e1613da7565b60200260200101516001600160a01b03160361182a578a86828151811061180a5761180a613da7565b6020026020010181815161181e9190613e6e565b9052506000915061183c565b8061183481613e1f565b9150506117bd565b5080156118a2578186858151811061185657611856613da7565b60200260200101906001600160a01b031690816001600160a01b0316815250508985858151811061188957611889613da7565b60209081029190910101528361189e81613e1f565b9450505b505080806118af90613e1f565b91505061174d565b506118f76040518060400160405280600f81526020017f756e69717565436f756e743a20257300000000000000000000000000000000008152508261297a565b60005b81811015611a1f5760055484516001600160a01b039091169063a9059cbb9086908490811061192b5761192b613da7565b602002602001015185848151811061194557611945613da7565b60200260200101516040518363ffffffff1660e01b815260040161197e9291906001600160a01b03929092168252602082015260400190565b6020604051808303816000875af115801561199d573d6000803e3d6000fd5b505050506040513d601f19601f820116820180604052508101906119c19190613e51565b611a0d5760405162461bcd60e51b815260206004820152601860248201527f50726f6475636572207472616e73666572206661696c65640000000000000000604482015260640161075f565b80611a1781613e1f565b9150506118fa565b5060405163a22cb46560e01b815233600482015260016024820152309063a22cb46590604401600060405180830381600087803b158015611a5f57600080fd5b505af1158015611a73573d6000803e3d6000fd5b50505050611a933033878760405180602001604052806000815250610c59565b60405163a22cb46560e01b815233600482015260006024820152309063a22cb46590604401600060405180830381600087803b158015611ad257600080fd5b505af1158015611ae6573d6000803e3d6000fd5b5050505060138c81548110611afd57611afd613da7565b906000526020600020906006020160050154600003611b895742600a819055507fa15393798d6c3de889ad7042f04dd1d5a071f23f0156532dcc0db9273b818ff18c4260138f81548110611b5357611b53613da7565b600091825260209182902060016006909202010154604080519485529184019290925282015260600160405180910390a1611bca565b604080518d81524260208201529081018b90527fd1e79094eca9e4ee96685d6f20c3beaa44735e6c632181c1ee43e0809e54b3d29060600160405180910390a15b505050505050505050611bdd6001600455565b505050565b8060005b8151811015611c73576000611c1433848481518110611c0757611c07613da7565b6020026020010151610693565b11611c615760405162461bcd60e51b815260206004820152601960248201527f4f6e6c7920746865206f776e65722063616e2072656465656d00000000000000604482015260640161075f565b80611c6b81613e1f565b915050611be6565b50611c7c612901565b611c846128dd565b6000825111611cdf5760405162461bcd60e51b815260206004820152602160248201527f4e6f20746f6b656e732070726f766964656420666f7220726564656d7074696f6044820152603760f91b606482015260840161075f565b60005b8251811015611e56576000838281518110611cff57611cff613da7565b602002602001015190506012600082815260200190815260200160002060000154600003611d6f5760405162461bcd60e51b815260206004820152601460248201527f546f6b656e20646f6573206e6f74206578697374000000000000000000000000604482015260640161075f565b60008181526012602052604090206003015460ff1615611dd15760405162461bcd60e51b815260206004820152601960248201527f546f6b656e20697320616c72656164792072656465656d656400000000000000604482015260640161075f565b60008181526012602052604090819020600301805460ff19166001179055517fedeebeca0267cef27cbec38941d303159718c8a4f296de4543797d6e3c69101e90611e3b908390339042909283526001600160a01b03919091166020830152604082015260600190565b60405180910390a15080611e4e81613e1f565b915050611ce2565b50611e616001600455565b5050565b611e6d612751565b610cef6000612bf8565b611e7f612751565b611e87612901565b611e8f6128dd565b6001600160a01b038116611ee55760405162461bcd60e51b815260206004820152601860248201527f41646472657373206d757374206e6f74206265207a65726f0000000000000000604482015260640161075f565b6000600b5411611f375760405162461bcd60e51b815260206004820152601460248201527f4e6f2066756e647320746f207769746864726177000000000000000000000000604482015260640161075f565b600554600b5460405163a9059cbb60e01b81526001600160a01b038481166004830152602482019290925291169063a9059cbb906044016020604051808303816000875af1158015611f8d573d6000803e3d6000fd5b505050506040513d601f19601f82011682018060405250810190611fb19190613e51565b611ffd5760405162461bcd60e51b815260206004820152601160248201527f5769746864726177616c206661696c6564000000000000000000000000000000604482015260640161075f565b6000600b556107ba6001600455565b612014612751565b60648111156120655760405162461bcd60e51b815260206004820152601f60248201527f5368617265206d757374206265206265747765656e203020616e642031303000604482015260640161075f565b60068190556040518181527fa07cfeca56cb4e7e494baa812562395dcfea7690cabc1e329f2539509c8097359060200161079e565b6120a2612751565b610cef612c69565b6120b2612751565b6120ba6128dd565b600082511161210b5760405162461bcd60e51b815260206004820152601560248201527f4e6f2070726f6475636572732070726f76696465640000000000000000000000604482015260640161075f565b600754815111156121685760405162461bcd60e51b815260206004820152602160248201527f42617463682073697a652065786365656473206d61782062617463682073697a6044820152606560f81b606482015260840161075f565b80518251146121df5760405162461bcd60e51b815260206004820152602b60248201527f4d69736d61746368206265747765656e2070726f64756365727320616e64206360448201527f696473206c656e67746873000000000000000000000000000000000000000000606482015260840161075f565b81516013546000036121f5576000600855612207565b600854612203906001613e6e565b6008555b61220f612ca6565b6122486040518060c001604052806000815260200160608152602001600081526020016000815260200160008152602001600081525090565b60085481528167ffffffffffffffff811115612266576122666134ba565b60405190808252806020026020018201604052801561228f578160200160208202803683370190505b506020820152426040820152600c5460808201819052606082015260a0810182905260008267ffffffffffffffff8111156122cc576122cc6134ba565b6040519080825280602002602001820160405280156122f5578160200160208202803683370190505b50905060008367ffffffffffffffff811115612313576123136134ba565b60405190808252806020026020018201604052801561233c578160200160208202803683370190505b50905060005b848110156124c257600060096000815461235b90613e1f565b91905081905590508084838151811061237657612376613da7565b602002602001018181525050600060405180608001604052808381526020018a85815181106123a7576123a7613da7565b60200260200101516001600160a01b031681526020018985815181106123cf576123cf613da7565b602090810291909101810151825260009181018290528482526012815260409182902083518155908301516001820180547fffffffffffffffffffffffff0000000000000000000000000000000000000000166001600160a01b03909216919091179055908201519192508291600282019061244b9082613edd565b50606091909101516003909101805460ff1916911515919091179055602086015180518391908590811061248157612481613da7565b60200260200101818152505060018484815181106124a1576124a1613da7565b602002602001018181525050505080806124ba90613e1f565b915050612342565b5060138054600181018255600091909152835160069091027f66de8ffda797e3de9c05e8fc57b3bf0ec28a930d40b0d285d93c06501cf6a0908101918255602080860151805187949361253b937f66de8ffda797e3de9c05e8fc57b3bf0ec28a930d40b0d285d93c06501cf6a0919091019201906133c1565b506040828101516002830155606083015160038301556080830151600483015560a090920151600590910155835181519081524260208201527f85aed37bb7cc21133f66f266fd7dd9c78412611a999a3ad78f1000382133469a910160405180910390a1610cd730838360405180602001604052806000815250612d80565b611e61338383612db8565b601381815481106125d557600080fd5b6000918252602090912060069091020180546002820154600383015460048401546005909401549294509092909185565b61260e612751565b6000811161265e5760405162461bcd60e51b815260206004820152601660248201527f496e76616c6964207374617274696e6720707269636500000000000000000000604482015260640161075f565b600c819055604080518281524260208201527f4772677a9a1203aa9e079cb22df8752a4205d56ae98f6d1212a714e473da6395910161079e565b336001600160a01b03861681148015906126d857506001600160a01b0380871660009081526001602090815260408083209385168352929052205460ff16155b156127095760405163711bec9160e11b81526001600160a01b0380831660048301528716602482015260440161075f565b610cd78686868686612e4e565b61271e612751565b6001600160a01b03811661274857604051631e4fbdf760e01b81526000600482015260240161075f565b6107ba81612bf8565b6003546001600160a01b03610100909104163314610cef5760405163118cdaa760e01b815233600482015260240161075f565b6002611e618282613edd565b60606002805461279f90613ce0565b80601f01602080910402602001604051908101604052809291908181526020018280546127cb90613ce0565b80156128185780601f106127ed57610100808354040283529160200191612818565b820191906000526020600020905b8154815290600101906020018083116127fb57829003601f168201915b50505050509050919050565b6001600160a01b03841661284e57604051632bfa23e760e11b81526000600482015260240161075f565b6001600160a01b03851661287757604051626a0d4560e21b81526000600482015260240161075f565b6128848585858585612edc565b5050505050565b612893612f2f565b6003805460ff191690557f5db9ee0a495bf2e6ff9c91a7834c1ba4fdd244a5e8aa4e537bd38aeae4b073aa335b6040516001600160a01b03909116815260200160405180910390a1565b60035460ff1615610cef5760405163d93c066560e01b815260040160405180910390fd5b60026004540361292457604051633ee5aeb560e01b815260040160405180910390fd5b6002600455565b612974848484846040516024016129459493929190613f9d565b60408051601f198184030181529190526020810180516001600160e01b031663a7a8785360e01b179052612f52565b50505050565b611e618282604051602401612990929190613fcc565b60408051601f198184030181529190526020810180516001600160e01b0316632d839cb360e21b179052612f52565b611bdd8383836040516024016129d793929190613fee565b60408051601f198184030181529190526020810180516001600160e01b031663ca47c4eb60e01b179052612f52565b606060008211612a685760405162461bcd60e51b815260206004820152602760248201527f4e756d62657220746f20627579206d7573742062652067726561746572207468604482015266616e207a65726f60c81b606482015260840161075f565b60008267ffffffffffffffff811115612a8357612a836134ba565b604051908082528060200260200182016040528015612aac578160200160208202803683370190505b5090506000805b60138681548110612ac657612ac6613da7565b90600052602060002090600602016001018054905081108015612ae857508482105b15612b8257600060138781548110612b0257612b02613da7565b90600052602060002090600602016001018281548110612b2457612b24613da7565b906000526020600020015490506000612b3d3083610693565b1115612b6f5780848481518110612b5657612b56613da7565b602090810291909101015282612b6b81613e1f565b9350505b5080612b7a81613e1f565b915050612ab3565b50838114610dbe5760405162461bcd60e51b815260206004820152602b60248201527f556e61626c6520746f2067657420746865207265717569726564206e756d626560448201527f72206f6620746f6b656e73000000000000000000000000000000000000000000606482015260840161075f565b600380546001600160a01b038381166101008181027fffffffffffffffffffffff0000000000000000000000000000000000000000ff85161790945560405193909204169182907f8be0079c531659141344cd1fd0a4f28419497f9722a3daafe3b4186f6b6457e090600090a35050565b612c716128dd565b6003805460ff191660011790557f62e78cea01bee320cd4e420270b5ea74000d11b0c9f74754ebdbfc544b05a2586128c03390565b600854600003612cb257565b6000600a5442612cc29190613dd3565b9050428103612cce5750565b601054612cde9062015180613e08565b811015612d0457600e54600c6000828254612cf99190613e6e565b90915550612d359050565b601154612d149062015180613e08565b811115612d3557600e54600c6000828254612d2f9190613dd3565b90915550505b600d54600c541015612d4857600d54600c555b600c54604080519182524260208301527f4772677a9a1203aa9e079cb22df8752a4205d56ae98f6d1212a714e473da6395910161079e565b6001600160a01b038416612daa57604051632bfa23e760e11b81526000600482015260240161075f565b612974600085858585612edc565b6001600160a01b038216612de15760405162ced3e160e81b81526000600482015260240161075f565b6001600160a01b03838116600081815260016020908152604080832094871680845294825291829020805460ff191686151590811790915591519182527f17307eab39ab6107e8899845ad3d59bd9653f200f220920489ca2b5937696c31910160405180910390a3505050565b6001600160a01b038416612e7857604051632bfa23e760e11b81526000600482015260240161075f565b6001600160a01b038516612ea157604051626a0d4560e21b81526000600482015260240161075f565b60408051600180825260208201869052818301908152606082018590526080820190925290612ed38787848487612edc565b50505050505050565b612ee885858585612f5b565b6001600160a01b038416156128845782513390600103612f215760208481015190840151612f1a838989858589612f67565b5050610cd7565b610cd781878787878761308b565b60035460ff16610cef57604051638dfc202b60e01b815260040160405180910390fd5b6107ba81613174565b61297484848484613195565b6001600160a01b0384163b15610cd75760405163f23a6e6160e01b81526001600160a01b0385169063f23a6e6190612fab9089908990889088908890600401614013565b6020604051808303816000875af1925050508015612fe6575060408051601f3d908101601f19168201909252612fe391810190614056565b60015b61304f573d808015613014576040519150601f19603f3d011682016040523d82523d6000602084013e613019565b606091505b50805160000361304757604051632bfa23e760e11b81526001600160a01b038616600482015260240161075f565b805181602001fd5b6001600160e01b0319811663f23a6e6160e01b14612ed357604051632bfa23e760e11b81526001600160a01b038616600482015260240161075f565b6001600160a01b0384163b15610cd75760405163bc197c8160e01b81526001600160a01b0385169063bc197c81906130cf9089908990889088908890600401614073565b6020604051808303816000875af192505050801561310a575060408051601f3d908101601f1916820190925261310791810190614056565b60015b613138573d808015613014576040519150601f19603f3d011682016040523d82523d6000602084013e613019565b6001600160e01b0319811663bc197c8160e01b14612ed357604051632bfa23e760e11b81526001600160a01b038616600482015260240161075f565b60006a636f6e736f6c652e6c6f679050600080835160208501845afa505050565b61319d6128dd565b6129748484848480518251146131d35781518151604051635b05999160e01b81526004810192909252602482015260440161075f565b3360005b83518110156132e2576020818102858101820151908501909101516001600160a01b0388161561328a576000828152602081815260408083206001600160a01b038c16845290915290205481811015613263576040516303dee4c560e01b81526001600160a01b038a16600482015260248101829052604481018390526064810184905260840161075f565b6000838152602081815260408083206001600160a01b038d16845290915290209082900390555b6001600160a01b038716156132cf576000828152602081815260408083206001600160a01b038b168452909152812080548392906132c9908490613e6e565b90915550505b5050806132db90613e1f565b90506131d7565b5082516001036133635760208301516000906020840151909150856001600160a01b0316876001600160a01b0316846001600160a01b03167fc3d58168c5ae7397731d063d5bbf3d657854427343f4c083240f7aacaa2d0f628585604051613354929190918252602082015260400190565b60405180910390a45050612884565b836001600160a01b0316856001600160a01b0316826001600160a01b03167f4a39dc06d4c0dbc64b70af90fd698a233a518aa5d07e595d983b8c0526c8f7fb86866040516133b29291906140d1565b60405180910390a45050505050565b8280548282559060005260206000209081019282156133fc579160200282015b828111156133fc5782518255916020019190600101906133e1565b5061340892915061340c565b5090565b5b80821115613408576000815560010161340d565b80356001600160a01b038116811461343857600080fd5b919050565b6000806040838503121561345057600080fd5b61345983613421565b946020939093013593505050565b6001600160e01b0319811681146107ba57600080fd5b60006020828403121561348f57600080fd5b813561349a81613467565b9392505050565b6000602082840312156134b357600080fd5b5035919050565b634e487b7160e01b600052604160045260246000fd5b604051601f8201601f1916810167ffffffffffffffff811182821017156134f9576134f96134ba565b604052919050565b600082601f83011261351257600080fd5b813567ffffffffffffffff81111561352c5761352c6134ba565b61353f601f8201601f19166020016134d0565b81815284602083860101111561355457600080fd5b816020850160208301376000918101602001919091529392505050565b60006020828403121561358357600080fd5b813567ffffffffffffffff81111561359a57600080fd5b6135a684828501613501565b949350505050565b600080604083850312156135c157600080fd5b50508035926020909101359150565b60005b838110156135eb5781810151838201526020016135d3565b50506000910152565b6000815180845261360c8160208601602086016135d0565b601f01601f19169290920160200192915050565b60208152600061349a60208301846135f4565b600081518084526020808501945080840160005b8381101561366357815187529582019590820190600101613647565b509495945050505050565b85815260a06020820152600061368760a0830187613633565b604083019590955250606081019290925260809091015292915050565b600067ffffffffffffffff8211156136be576136be6134ba565b5060051b60200190565b600082601f8301126136d957600080fd5b813560206136ee6136e9836136a4565b6134d0565b82815260059290921b8401810191818101908684111561370d57600080fd5b8286015b848110156137285780358352918301918301613711565b509695505050505050565b600080600080600060a0868803121561374b57600080fd5b61375486613421565b945061376260208701613421565b9350604086013567ffffffffffffffff8082111561377f57600080fd5b61378b89838a016136c8565b945060608801359150808211156137a157600080fd5b6137ad89838a016136c8565b935060808801359150808211156137c357600080fd5b506137d088828901613501565b9150509295509295909350565b600082601f8301126137ee57600080fd5b813560206137fe6136e9836136a4565b82815260059290921b8401810191818101908684111561381d57600080fd5b8286015b848110156137285761383281613421565b8352918301918301613821565b6000806040838503121561385257600080fd5b823567ffffffffffffffff8082111561386a57600080fd5b613876868387016137dd565b9350602085013591508082111561388c57600080fd5b50613899858286016136c8565b9150509250929050565b60208152600061349a6020830184613633565b8481526001600160a01b03841660208201526080604082015260006138de60808301856135f4565b9050821515606083015295945050505050565b60008060006060848603121561390657600080fd5b505081359360208301359350604090920135919050565b60006020828403121561392f57600080fd5b813567ffffffffffffffff81111561394657600080fd5b6135a6848285016136c8565b60006020828403121561396457600080fd5b61349a82613421565b6000806040838503121561398057600080fd5b823567ffffffffffffffff8082111561399857600080fd5b6139a4868387016137dd565b93506020915081850135818111156139bb57600080fd5b8501601f810187136139cc57600080fd5b80356139da6136e9826136a4565b81815260059190911b820184019084810190898311156139f957600080fd5b8584015b83811015613a3157803586811115613a155760008081fd5b613a238c8983890101613501565b8452509186019186016139fd565b508096505050505050509250929050565b80151581146107ba57600080fd5b60008060408385031215613a6357600080fd5b613a6c83613421565b91506020830135613a7c81613a42565b809150509250929050565b60008083601f840112613a9957600080fd5b50813567ffffffffffffffff811115613ab157600080fd5b6020830191508360208260051b8501011115613acc57600080fd5b9250929050565b60008083601f840112613ae557600080fd5b50813567ffffffffffffffff811115613afd57600080fd5b602083019150836020828501011115613acc57600080fd5b60008060008060008060008060a0898b031215613b3157600080fd5b613b3a89613421565b9750613b4860208a01613421565b9650604089013567ffffffffffffffff80821115613b6557600080fd5b613b718c838d01613a87565b909850965060608b0135915080821115613b8a57600080fd5b613b968c838d01613a87565b909650945060808b0135915080821115613baf57600080fd5b50613bbc8b828c01613ad3565b999c989b5096995094979396929594505050565b60008060408385031215613be357600080fd5b613bec83613421565b9150613bfa60208401613421565b90509250929050565b60008060008060008060a08789031215613c1c57600080fd5b613c2587613421565b9550613c3360208801613421565b94506040870135935060608701359250608087013567ffffffffffffffff811115613c5d57600080fd5b613c6989828a01613ad3565b979a9699509497509295939492505050565b600080600080600060a08688031215613c9357600080fd5b613c9c86613421565b9450613caa60208701613421565b93506040860135925060608601359150608086013567ffffffffffffffff811115613cd457600080fd5b6137d088828901613501565b600181811c90821680613cf457607f821691505b602082108103613d1457634e487b7160e01b600052602260045260246000fd5b50919050565b600083516020613d2d82858389016135d0565b818401915060008554613d3f81613ce0565b60018281168015613d575760018114613d6c57613d98565b60ff1984168752821515830287019450613d98565b896000528560002060005b84811015613d9057815489820152908301908701613d77565b505082870194505b50929998505050505050505050565b634e487b7160e01b600052603260045260246000fd5b634e487b7160e01b600052601160045260246000fd5b818103818111156106b5576106b5613dbd565b600082613e0357634e487b7160e01b600052601260045260246000fd5b500490565b80820281158282048414176106b5576106b5613dbd565b600060018201613e3157613e31613dbd565b5060010190565b600060208284031215613e4a57600080fd5b5051919050565b600060208284031215613e6357600080fd5b815161349a81613a42565b808201808211156106b5576106b5613dbd565b634e487b7160e01b600052600160045260246000fd5b601f821115611bdd57600081815260208120601f850160051c81016020861015613ebe5750805b601f850160051c820191505b81811015610cd757828155600101613eca565b815167ffffffffffffffff811115613ef757613ef76134ba565b613f0b81613f058454613ce0565b84613e97565b602080601f831160018114613f405760008415613f285750858301515b600019600386901b1c1916600185901b178555610cd7565b600085815260208120601f198616915b82811015613f6f57888601518255948401946001909101908401613f50565b5085821015613f8d5787850151600019600388901b60f8161c191681555b5050505050600190811b01905550565b608081526000613fb060808301876135f4565b6020830195909552506040810192909252606090910152919050565b604081526000613fdf60408301856135f4565b90508260208301529392505050565b60608152600061400160608301866135f4565b60208301949094525060400152919050565b60006001600160a01b03808816835280871660208401525084604083015283606083015260a0608083015261404b60a08301846135f4565b979650505050505050565b60006020828403121561406857600080fd5b815161349a81613467565b60006001600160a01b03808816835280871660208401525060a0604083015261409f60a0830186613633565b82810360608401526140b18186613633565b905082810360808401526140c581856135f4565b98975050505050505050565b6040815260006140e46040830185613633565b8281036020840152610c50818561363356fea164736f6c6343000814000a",
  "linkReferences": {},
  "deployedLinkReferences": {}
}